:020000040000fa
:080000000002040000000000f2
:020000040000fa
:10040000afe42100807f240000018800000000008c
:100410000a00070011000700000020000000e000b3
:1004200002003200000002000000000068f002003c
:10043000000000000040da000000fe004440a90077
:10044000408121000000e000030032000000200095
:10045000a00188004440a80000000600e002260039
:10046000110020001600370062004000e0804800c4
:10047000910188009001ba0062004000e0804800cd
:10048000910188009002ba0062004000e0804800bc
:100490000002eb006028e10005003a008301e9005a
:1004a00007003300038009000059eb000400370007
:1004b0006128e100010032000082eb000500070026
:1004c000910188001001ba000200e000e6ff3a0046
:1004d0000000050091018800800278006200400061
:1004e000e08048003559ba008301e9000800320075
:1004f0002559ba008301e900050032000400e0003c
:10050000f4ff320015d9ba008301e900f1ff3a0087
:1005100000000600b456040001000000d656040096
:10052000010000004cbe040000000000eebf04000b
:10053000000000006c04040000000000889fbe0062
:10054000e30440000900a100808f54004a003600f7
:10055000e38f540001003e004900200032d28000a9
:100560000200e00002003200820078000c00370038
:1005700081a4210003003700908f5400230036002f
:100580008080e800110078000000e000faff3a00e7
:100590000f003700908f54001c0036008080e80068
:1005a000110078000000e000faff3a001201780024
:1005b00081a4210003003700908f540013003600ff
:1005c0008080e80011007800820f5000faff3a00a6
:1005d00028d28000890f54000100310009047800fe
:1005e000080078004b0107000000e00004003a001a
:1005f000890f5400200032000804d100f5ff3700b5
:10060000081878001f000700d4ff37001101780098
:100610009201780064805100890f5000030031007e
:1006200012009000800878000700370009004100a0
:100630008008780092019000130098001100780063
:100640001288140009097800910078000100e00088
:1006500005003200110090000000e00002003200ae
:100660000180e800010037000000eb0030d2880074
:100670000280e800010037000000eb004f04be00dc
:10068000000006000000e000310032008080e90038
:1006900091027800e38f52002d0036000508a30078
:1006a0002b003a0042d280000200e000020032003b
:1006b000828f5000040031000208780041d2880087
:1006c0001600370003017800920190000300e0005b
:1006d00002003200818f5100faff390012027800c7
:1006e00004004100808f500019003900810f500034
:1006f00003003a0005094200820078000700370035
:100700000300e0000300320005804000808f5100ac
:100710000f0039009300980011019800110190001a
:100720000200e0000a00320011804000820f5000f9
:1007300007003a0060a421000008eb0011009000bf
:10074000110178009008410010009000900098007e
:1007500000000600800078001104b100030035009d
:100760009101b10001003c000050a0000000060013
:100770008001eb0002003700817178008301e800fe
:10078000828f5100fcff3a00000006000003780051
:10079000800178000002eb000100370080597800ea
:1007a00084025100820f52000900320064c07800b8
:1007b0000402e8000004e000f8ff3a00830078003b
:1007c0008058eb0005804100808f5000fcff3a000c
:1007d0000600780000000600800078001106b100d5
:1007e000030035009101b10001003c000050a10060
:1007f0000000060080007800010037000000e800db
:100800001004e000fdff3a00010050000000060067
:1008100080017800000178003140780000597800ac
:100820000004e000fcff3a0003007800000006002e
:10083000040037000204e00001003a000000050057
:100840000000e80010417800814f5100f9ff3a00a4
:1008500000000600800178000001780001003700e8
:100860000201e8001204e000fdff3a000200370038
:100870000201e8008100e80011407800004978009a
:100880000004e000faff3a000300780000000600d0
:10089000040037000204e0000a0032000000e80013
:1008a0008100e80010417800914f5100f9ff3200bb
:1008b0000081eb0010407800914f50000400390097
:1008c000020037000001eb00010037001200200099
:1008d0000200780000000600881f780002047800fb
:1008e00093000700080040004f0478000000060055
:1008f0000000fa00881f7800000478003fb99700d4
:10090000ea81570080007800c04620008f00070071
:10091000800078000000e000020035000040eb009d
:1009200000f47800010078004f0478000080fa009d
:1009300000000600000278000000eb000b0037000a
:100940009441780091cf5100030032000080eb0009
:1009500009003900100005000000e8000304e00071
:10096000040032000402e8008100e800820f500019
:10097000f3ff3a000000eb0000000600881f78003b
:1009800000047800c0d180000000e00001003200c7
:1009900000000100a0a321000048eb0090d18000de
:1009a0000000e00001003200000001006140b800da
:1009b000a0d18800b1d188004f0478000000060063
:1009c000881f7800c0d180000000e00001003200e4
:1009d0000000010090d180000000e0000100320022
:1009e0000000010060cb80000000e0000100320048
:1009f0000000010030cb80000000e0000100320068
:100a000000000100a0a321001004e00026003a002d
:100a1000a0d18000b1d180000004eb00d26026009c
:100a2000930120000b040700f2352f00e3c62300da
:100a300000004100818049000804e800e80f5400ec
:100a4000f6ff3a00a0d18800b1d18800e8962100d5
:100a5000d260260093012000a0d18000b1d1800097
:100a6000fc030700f2352f00e3c62300000041001d
:100a700081804900a0d18800b1d18800009cbe00cf
:100a8000e09e2100800f5400f1ff3a0050cf80001b
:100a900061cf800040cb880051cb880011c0b300eb
:100aa000a0a3210001487800d26026009301200015
:100ab000a0d18000b1d18000e6030700f2352f00fd
:100ac000e3c623000000410081804900a0d18800d6
:100ad000b1d1880082962100120178007f01610067
:100ae0004211dd00e3962100030141001202be0025
:100af00044cb880055cb88000089be0040cb8000e5
:100b000051cb80004008de0000f0a1004f047800c7
:100b1000000006000000e000030034009803070016
:100b2000e10f400001003a000000eb000000060069
:100b30008001eb000200370061f079008301e800da
:100b4000828f5100fcff3a00000006006200fa00ac
:100b5000889fbe008a9fbe000004be000205780088
:100b60008300780060f92f000f004000b0000700fc
:100b700088979f0099979f000000eb00a09f9f001f
:100b80009a4578000b80fb000000ea00cf04de00ed
:100b900050c2b30080cf5500020032000904780033
:100ba000010037000904e9000800e0000b003400f0
:100bb0001f909700080178008a0078008f919700b5
:100bc0000300010090979f000000e00093003200b6
:100bd0002f98970000004400a09f9f000905450042
:100be00050c2b30080cf5500040032000b04e00077
:100bf000e3ff3a002f989700890037000000eb00d0
:100c0000809f9f00f0979f00e0979f00d0979f00e4
:100c1000c0979f00b0979f00c09f9f0009003700ba
:100c2000a09f21000080500000004000e19e2100b4
:100c3000e10078004f98970001007000c09f9f006e
:100c40000a05e8001a4478008800fb00a09f2100f4
:100c5000f7fe0700800078000000e000f0ff3a0097
:100c6000a0c2b300804f54000e003a00bf88970026
:100c70000180e900b08f9f0010007800b09f9f00b6
:100c80000000e00005003d000000ea00b09f9f006a
:100c90004f9897000020a000c09f9f000a05e80021
:100ca00010003700b19f9f0009003700bf989700e0
:100cb000f0ff2700808f5000040032006a08b9005e
:100cc0000000410003004000b09f9f000a05e800bb
:100cd0001a01fb0003fd2f0003004100e90f500043
:100ce000f2ff3600e0c2b3009a4f10000400320059
:100cf0000080eb00909f9f008a0478001c00370062
:100d00008a04e800a0c2b300994f100007003a001f
:100d1000bf8897000180e900b08f9f001000780025
:100d2000909f9f008a84e800110037000000eb00cc
:100d3000909f9f00090037009f989700f0ff2700c1
:100d4000808f5000040032006a08b90000004100a2
:100d500003004000909f9f008904e8001901fb00f8
:100d600003fd2f0003004100e90f5000f2ff3600a1
:100d7000194478008800fb00c0a32100acfe0700e6
:100d80000000e00002003a00004478000100370053
:100d90008904e800a87f9f0080c6b300804f5400fc
:100da00004003a00994f14000a003a0066405000cf
:100db00006003700c0c6b300804f540005003a005b
:100dc000994f140003003a0065404000a07f9f0047
:100dd0008904e8000905e800cbfb2f008f8545005a
:100de0001901fb0060f92f000f0040000084e800ab
:100df0008b0178008000780008007800110007005f
:100e00000000e00005003a008b0078000800780040
:100e10004f0107000000e00059ff3d000080eb009b
:100e20004f05be004f04be000080fa00000006001f
:100e30000200fa00f1bf9f00010878000080fa006c
:100e400000000600889fbe008a1f7800000478001a
:100e5000010278008244780003057800e0c6b30000
:100e6000804f5100d200320015003c006b40500012
:100e7000804f5100240032000a003c0070405000b6
:100e8000804f51000f01320065404000804f5100fb
:100e90007400320050c2b300804f510020013a006c
:100ea0001c01370040c6b300804f51001b003200c8
:100eb00065404000804f510019013a00170037008b
:100ec00030c7b300804f5100fe00320007003c00e5
:100ed00064405000804f5100620032000040e80042
:100ee000804f51000e013a00e700370050c7b300b1
:100ef000804f51005b00320063404000804f510042
:100f000007013a00570037009180e900010a780094
:100f1000780090009171780007013700a860900078
:100f2000c0c6b30080cf50000a003a009400780099
:100f300064805000000a78001000be004f89de0077
:100f4000cf91de000002be00020378008203780029
:100f50001300370010c7b30080cf500003003200e9
:100f6000a0c6b30080cf500006003a00940078007d
:100f700068805000000a78003002be002003be00e6
:100f8000070037001480e900000a7800100078009c
:100f900000027800cfa2de00050378008603780007
:100fa000049cbe000694be00a860900080c6b300fa
:100fb00080cf50000e00320020c6b30080cf50001a
:100fc00005003a000400fb00cf80de00010178003c
:100fd000820178000a00370040c7b30080cf50007c
:100fe000030032006640400080cf500006003a0007
:100ff00004007800cf80de000101780082017800d3
:10100000009cbe000294be003800be002801be0055
:10101000e00f5000e08f5800e00f5900e08f5900ba
:1010200003003d0078009000d1c2b3000a003700f1
:10103000081090000018a300030032007800900010
:10104000b1c2b300040037000008a300530032000f
:101050007800900001c2b300017578000000e8003c
:101060004d003700a8609000c0c6b30080cf50008c
:1010700006003a009400780064805000000a78006e
:101080001002be006033b8001300370010c7b30071
:1010900080cf500003003200a0c6b30080cf5000c4
:1010a00006003a009400780068805000000a78003a
:1010b0003002be002003be00070037001480e900a4
:1010c000000a780010007800000278000500200077
:1010d0000600200007002000049cbe000694be000d
:1010e000a860900080c6b30080cf50000e00320090
:1010f00020c6b30080cf500005003a000480fb00fa
:101100000100200002002000030020000a00370038
:1011100040c7b30080cf500003003200664040005b
:1011200080cf500006003a00040078000100200043
:101130000200200003002000009cbe000294be00bc
:10114000081090000038a300140032003800be00e0
:101150002801be00e00f5000e08f5800e00f59005a
:10116000e08f59000d00320080c7b30080cf5400db
:101170000300320080c5b30080cf540007003a005e
:101180007800900001c3b300017578008000e8008a
:1011900009f578000080e80070049800780090005d
:1011a0000000450060049800894078004200370044
:1011b000a8609000c0c6b30080cf50002500320068
:1011c0000a003c006440500080cf500028003200ec
:1011d00000c0e80080cf500014003200684050008a
:1011e00080cf500022003a000a00370040c7b30009
:1011f00080cf50001e0032006640400080cf50007b
:101200001b0032006940500080cf500018003a00a7
:10121000060037001480e900000a7800100078000a
:10122000485c900008487800450037001480e900c9
:10123000000a78001002780068089000cf80de0075
:101240000101780082017800009abe000292be007f
:101250003b0037001480e900000a78001001780094
:1012600068089000cf80de000089be00340037009f
:101270001480e900000a780010007800680c9000e3
:10128000080878002e0037001180e90080087800f7
:1012900010007800cf80de00010178008201780024
:1012a000009cbe000294be00780090000000450043
:1012b0006004980081c7b30008007800ee000700c2
:1012c0001f0037001480e900000a78001000780041
:1012d00060049800580990000200e00002003d0000
:1012e00044fd0700090037008000eb009a01070069
:1012f000800078000000e0000300320068009000e9
:10130000008050000100370058089000100c980031
:101310000b00370078009000027578000600370057
:1013200078009000800045000904e00001003a00c8
:1013300059c2b300894878000000e80070049800a2
:101340000000eb004f0578004f04be0000000600cf
:101350000400fa00889fbe008a9fbe008c1f7800a0
:10136000000478000106780070089000f8009000f2
:10137000010050008808900001005000980890007b
:1013800001005000a808900001005000b80890002b
:1013900001005000c80890008105500000022200a2
:1013a00090bf9f0000032300a0bf9f000810900083
:1013b0000028a30018003a000b00e00016003400db
:1013c0008b04780009057800e28f54000200360093
:1013d0002a002000020037000900e0000b00340062
:1013e00058009000c80190000a017800ee80570074
:1013f00003000100500498000000e0009600320055
:101400006808900000004500600c98008a84540031
:101410004240a900ebff3c00780190000200e00090
:101420000b00340058009000c80190008c00780038
:1014300003000100500498000000e0008600320024
:1014400068089000f800900001004000600c9800cf
:10145000880c90000900e0001500340009057800b0
:10146000e28f5400020036002a00200002003700fc
:101470000900e0000b00340058009000c801900003
:101480000a017800ec805700030001005004980026
:101490000000e00070003200680890000000450085
:1014a000600c98008a8454004240a900ebff3c0085
:1014b000180990000200e0000b003400e8009000e2
:1014c00058009000c80190000300010050049800eb
:1014d0000000e0006000320068089000980890006a
:1014e00001004000600c9800a80c90000900e0008a
:1014f0001500340009057800e28f54000200360020
:101500002a002000020037000900e0000b00340030
:1015100058009000c80190000a017800ec80570044
:1015200003000100500498000000e0004a0032006f
:101530006808900000004500600c98008a84540000
:101540004240a900ebff3c00380990000200e00097
:101550000d003400e80090001808900080804000e2
:1015600058009000c801900003000100500498004a
:101570000000e0003800320068089000b8089000d1
:1015800001004000600c9800c80c90000900e000c9
:101590001500340009057800e28f5400020036007f
:1015a0002a002000020037000900e0000b00340090
:1015b00058009000c80190000a017800ec805700a4
:1015c00003000100500498000000e00022003200f7
:1015d0006808900000004500600c98008a84540060
:1015e0004240a900ebff3c00081090000028a30037
:1015f0001b0032000b00e000190034008b0478005f
:1016000009057800e28f5400020036002a0020000d
:10161000020037000900e0000b0034005800900081
:10162000c80190000a017800ee8057000300010015
:10163000500498000000e0000700320068089000a5
:1016400000004500600c98008a8454004240a900c4
:1016500003003400eaff37000080eb000100370090
:101660000000eb004f0678004f05be004f04be009f
:101670000080fa0000000600ef02b000889fbe0064
:101680008a9fbe008c9fbe008e1f780000067800e7
:1016900010a22100c0b79f0080c5b30080cf5000ca
:1016a0000800320002a12100c2b79f00774040002d
:1016b00080cf500003003a0083002000b3b79f00a2
:1016c0000a00370080c7b30080cf50000500320009
:1016d000a4002000b4b79f0080c5b30080cf5000a5
:1016e00002003a0000012000b0b79f003c04be0099
:1016f0002c05be0040c6b30080cf5000030032006e
:101700006540400080cf50000b003a00e00f5400cd
:10171000e08f5c00e00f5d00e08f5d0006003d00a3
:101720006000b8006011b8000804500089845800b7
:101730000a0559008b855900e00f5400e08f5c00ca
:10174000e00f5d00e08f5d0004003a005c0890004f
:101750008d0120000000e0000c003200bfb09700b7
:1017600001027800cfa2de0005037800860378002e
:101770000800be000a01be003d0107004fb29700fd
:1017800064407800d0df9f007d0120003fb09700cb
:1017900000027800cfa2de000503780086037800ff
:1017a0000800be000a01be002a010700009ebe001c
:1017b0000296be000d00e90061fc2f008f80400002
:1017c000008740001e0037003fb1970002047800f8
:1017d000cfc4de00090578008a0578000802be0043
:1017e0000a03be007fa897008fb097001fb1970033
:1017f000afb1970022010700d0b79f00e1b79f006b
:10180000f2b79f0083bf9f008d06e9000802be006b
:101810000a03be00a00107007faa97000000520043
:10182000cfb09700615778005fb09700efb0970096
:101830007fb197008fb99700009ebe000296be0050
:101840003c00be002c01be00f0af9f0081b79f009e
:1018500092b79f00a3b79f00e00f5000e08f5800a1
:10186000e00f5900e08f5900020034000d00e00045
:10187000d5ff3c00bfb09700e88f500010003a0041
:101880000c1090000038a3000d003200f78f5600b6
:1018900006003e0062fc2f000f0141008d00410058
:1018a00000c3b300914f1000050032008d06e9001f
:1018b00000c3b30063fc2f008f81410080f17e00e4
:1018c00078811600120e98006c00900063fc2f00c7
:1018d0008f8141008d80410095fc07001c0990001c
:1018e0005c089000800f510006003d00020050008f
:1018f000000e98000c1090000040a1000016980007
:101900000f0037000000e0000d003d000c109000bb
:1019100074006000f00f500009003a007c0890004d
:10192000fc009000010050008c0890000100500065
:10193000020050004240a90001003400000e98004f
:101940004f0778004f06be004f05be004f04be0093
:10195000ef02b100000006008001eb000400370038
:101960008301e80090cf1000040032000000e8007e
:10197000828f5100faff3a000000eb0000000600e1
:10198000889fbe00800478006419e20004003a00d9
:101990000000eb00100007000000e0000a00350026
:1019a00020cb80000900e00002003a00000478002b
:1019b0000600370000047800090040000600070018
:1019c0000000e00001003d000084eb00080078000a
:1019d0004f04be0000000600800078000000e00018
:1019e00004003a00a0a4210020cb88000101780067
:1019f000060037000081eb00a0e42100808f50003a
:101a000002003e0021cb88000001eb0002007800bc
:101a1000000006006022b800060220000000d0008e
:101a20008180d2000482d2008582d2000000a00012
:101a30000202520083825a00030031000202420077
:101a400083824a000000a1000603e900f3ff3a0088
:101a500000000600020ab900001bb9000200b8002d
:101a6000810042008100430000000600881f7800ca
:101a7000000478005001be004000be000400400099
:101a8000858048000601490087814900009cbe000e
:101a90000294be000400e1000588e1000690e10028
:101aa0000798e10002003100680044001008e800d7
:101ab0004f04780000000600f4874700889fbe00ae
:101ac0008a9fbe008c9fbe008e1f78000205be005c
:101ad0000004be00d4b79f00e5b79f00f6b79f0093
:101ae00087bf9f000000eb00c0b79f00b0b79f000a
:101af000a0b79f0090b79f0080b79f000d04200003
:101b0000bfb097004fb09700000140000000e00018
:101b10000f003d004f08de0000007100c0b79f00bd
:101b20009e00070001003d0012002000a1000700f8
:101b300001003d0012002000a6000700b1000700d0
:101b4000b60007000f004000c8ff07002200370062
:101b50004f08de0000067100ccb79f008f00070021
:101b600001003d00120020009200070001003d002e
:101b70001200200097000700a20007000fb2970094
:101b80009fb297002fb39700bfb39700a90007003b
:101b90000000520081805a0002015b0083815b00db
:101ba00080b79f0091b79f00a2b79f00b3b79f0077
:101bb0000007eb009f0007000020e10001a8e10002
:101bc00002b0e10003b8e100010031001e00200076
:101bd0000e005600c0b79f004fb297000400e0000f
:101be0000700350010002000010020006011b8003f
:101bf00008047000898470000a0571008b857100eb
:101c00008d06e900beff3a000400e00003003d003d
:101c1000820007000f00400094ff07004fa89700c4
:101c20000000e00004003a000fb497009fb4970052
:101c30002fb59700bfb59700940007004f077800b5
:101c40004f06be004f05be004f04be004f01b1005d
:101c500000000600881f780018002000881f780008
:101c600095ff07008f87e9004f0478000000060009
:101c7000801feb0090ff07008f87e900000006003f
:101c8000889fbe008a9fbe008c1f78006e000700f0
:101c900007003d0073000700e00f5b00e08f5b0072
:101ca00007003d00320007000006eb00040037008b
:101cb0003400070002003d002a0007001c0020003d
:101cc00072000700e3ff07000203be000002be002f
:101cd0000c00e00001003200220007000400be00fa
:101ce0000601be004f0678004f05be004f04be003f
:101cf00000000600889fbe008a9fbe008c1f7800ef
:101d00005100070005003d0056000700e00f5b0092
:101d1000e08f5b0006003d0004003700190007005b
:101d200003003d006000b8006011b800100007001b
:101d300056000700ceff07000203be000002be00ef
:101d40000c00e00001003200060007000400be00a5
:101d50000601be004f0678004f05be004f04be00ce
:101d6000000006006000b8006011b80000003700f5
:101d700004025000858258000603590087835900e9
:101d8000000006000006eb00e00f5200e08f5a0052
:101d9000e00f5b00e08f5b00000006000180400068
:101da00090b79f000001eb008fb097000100e000aa
:101db000000006000200700090b79f000180400004
:101dc00080b79f000001eb00ffa897000100e00032
:101dd000000006000200700080b79f0001804000f4
:101de0006faa9700cf20de0001007000f0af9f00c7
:101df00004024200250007004f18de0000027200b6
:101e000000000600e4af9f000804440089844c00f1
:101e10000a054d008b854d00000006003fb297007b
:101e2000cfb297005fb39700efb3970000fe2f008b
:101e3000000006003fb09700cfb097005fb1970059
:101e4000efb19700000006000205be000004be00ce
:101e5000e00f5000e08f5800e00f5900e08f59006c
:101e6000000006006000b8006011b80008045000cf
:101e7000898458000a0559008b8559001c002000f0
:101e8000e00f5200e08f5a00000006000800be007c
:101e90000a01be0000000600889fbe008a9fbe00a7
:101ea0008c1f78000205be000004be000006eb0097
:101eb000e00f5000e08f5800e00f5900e08f59000c
:101ec00007003d006000b8006011b8000804500031
:101ed000898458000a0559008b8559001c00200090
:101ee000e00f5200e08f5a00e00f5b00e08f5b00d4
:101ef00002003d000f0007000c00a2000800be0019
:101f00000a01be00120007000203be000002be006c
:101f10000c00e00001003200060007000400be00d3
:101f20000601be004f0678004f05be004f04be00fc
:101f3000000006006000b8006011b8000402500004
:101f40008582580006035900878359000000060067
:101f5000889fbe008a9fbe008c9fbe000404b8000c
:101f60000506b8008904460060854e000606b800e4
:101f70000a054600e0854e000706b8008b054600be
:101f8000040eb800890446000a854e00e0854d0025
:101f9000050eb8000a0546008b854e00060eb800f7
:101fa0008b0546000416b8000a0546008b854e00d6
:101fb0000516b8008b054600041eb8008b054600c8
:101fc0000800be000a01be004f06be004f05be005d
:081fd0004f04be0000000600f2
:020000040000fa
:020000040005f5
:0457f800fe2300008c
:020000040000fa
:020000040005f5
:0457fc007f3e0000ec
:020000040000fa
:1000080018fd00002cfd000040fd000054fd00001c
:1000180068fd000018fd000018fd000018fd000034
:1000280018fd000018fd000018fd000018fd000074
:1000380018fd000018fd000018fd000018fd000064
:1000480018fd000018fd000018fd000018fd000054
:1000580018fd000018fd000018fd000018fd000044
:1000680018fd000018fd000018fd000018fd000034
:1000780018fd000018fd000018fd000018fd000024
:1000880018fd000018fd000018fd0000e8fc000045
:1000980018fd000018fd000018fd000018fd000004
:1000a80018fd000018fd000018fd000018fd0000f4
:1000b80018fd000018fd000018fd000018fd0000e4
:1000c80018fd000018fd000018fd000018fd0000d4
:1000d80018fd000018fd000018fd000018fd0000c4
:1000e80018fd000018fd000018fd000018fd0000b4
:1000f80018fd000018fd000018fd000018fd0000a4
:1001080018fd000018fd000018fd000018fd000093
:1001180018fd000018fd000018fd000018fd000083
:1001280018fd000018fd000018fd000018fd000073
:1001380018fd000018fd000018fd000018fd000063
:1001480018fd000018fd000018fd000018fd000053
:1001580018fd000018fd000018fd000018fd000043
:1001680018fd000018fd000018fd000018fd000033
:1001780018fd000018fd00008a8b000018fd000023
:1001880018fd000018fd000018fd000018fd000013
:1001980018fd000018fd000018fd000018fd000003
:1001a80018fd000018fd000018fd000018fd0000f3
:1001b80018fd000018fd000018fd000018fd0000e3
:1001c80018fd000018fd000018fd000018fd0000d3
:1001d80018fd000018fd000018fd000018fd0000c3
:1001e80018fd000018fd000018fd000018fd0000b3
:0801f80018fd000018fd0000d5
:020000040000fa
:1002080018fd00002cfd000040fd000054fd00001a
:1002180068fd000018fd000018fd000018fd000032
:1002280018fd000018fd000018fd000018fd000072
:1002380018fd000018fd000018fd000018fd000062
:1002480018fd000018fd000018fd000018fd000052
:1002580018fd000018fd000018fd000018fd000042
:1002680018fd000018fd000018fd000018fd000032
:1002780018fd000018fd000018fd000018fd000022
:1002880018fd000018fd000018fd0000e8fc000043
:1002980018fd000018fd000018fd000018fd000002
:1002a80018fd000018fd000018fd000018fd0000f2
:1002b80018fd000018fd000018fd000018fd0000e2
:1002c80018fd000018fd000018fd000018fd0000d2
:1002d80018fd000018fd000018fd000018fd0000c2
:1002e80018fd000018fd000018fd000018fd0000b2
:1002f80018fd000018fd000018fd000018fd0000a2
:1003080018fd000018fd000018fd000018fd000091
:1003180018fd000018fd000018fd000018fd000081
:1003280018fd000018fd000018fd000018fd000071
:1003380018fd000018fd000018fd000018fd000061
:1003480018fd000018fd000018fd000018fd000051
:1003580018fd000018fd000018fd000018fd000041
:1003680018fd000018fd000018fd000018fd000031
:1003780018fd000018fd00008a8b000018fd000021
:1003880018fd000018fd000018fd000018fd000011
:1003980018fd000018fd000018fd000018fd000001
:1003a80018fd000018fd000018fd000018fd0000f1
:1003b80018fd000018fd000018fd000018fd0000e1
:1003c80018fd000018fd000018fd000018fd0000d1
:1003d80018fd000018fd000018fd000018fd0000c1
:1003e80018fd000018fd000018fd000018fd0000b1
:0803f80018fd000018fd0000d3
:020000040000fa
:101fd80000000000f08f0000000000001c0000005e
:101fe8007f000000000e00000007000098010000bc
:101ff80000070000a601000000090000b40100006d
:1020080000090000d001000000020000ec010000ff
:1020180000030000fa0100000005000008020000ab
:10202800000500001602000000060000240200005f
:102038000008000032020000000700004002000013
:10204800000300004e020000000300005c020000d4
:10205800000300006a02000000050000780200008a
:102068000005000086020000000300009402000042
:1020780000040000a202000000030000b0020000fb
:1020880000050000be02000000050000cc020000b0
:1020980000050000da02000000060000e802000067
:1020a80000050000f602000000050000040300001f
:1020b80000050000120300000005000020030000d6
:1020c800000500002e030000000500003c0300008e
:1020d800000500004a030000000300005803000048
:1020e8000003000066030000000500007403000000
:1020f80000050000820300000005000090030000b6
:10210800000500009e030000000a0000ac03000068
:1021180000070000c803000000070000d603000005
:1021280000060000e403000000070000f2030000be
:102138000005000000040000000500000e04000077
:10214800000600001c040000000700002a0400002c
:1021580000030000380400000003000046040000eb
:10216800000600005404000000050000620400009e
:102178000009000070040000000700008c04000043
:10218800000700009a04000000060000a8040000f0
:1021980000070000b604000000060000c4040000a8
:1021a80000050000d204000000060000e004000062
:1021b80000070000ee04000000070000fc04000017
:1021c800000900000a0500000007000026050000bd
:1021d800000700003405000000060000420500006a
:1021e8000003000050050000000500005e05000027
:1021f800000400006c050000000500007a050000de
:102208000005000088050000000400009605000095
:1022180000050000a405000000060000b20500004b
:1022280000050000c005000000060000ce05000003
:1022380000050000dc05000000030000ea050000be
:1022480000060000f8050000000600000606000071
:10225800000300001406000000030000220600002e
:102268000006000030060000000300003e060000e3
:10227800000900004c060000000600006806000087
:102288000006000076060000000600008406000034
:10229800000600009206000000040000a0060000ee
:1022a80000040000ae06000000040000bc060000a8
:1022b80000060000ca06000000050000d80600005d
:1022c80000080000e606000000060000f406000012
:1022d80000050000020700000005000010070000cc
:1022e800000400001e070000000300002c07000087
:1022f800000500003a07000000050000480700003c
:10230800000200005607000000000000000c00005a
:102318001c30000060400000603000001c0c000011
:1023280000000000000000000060000070180000bd
:102338000c0400000c180000706000000000000091
:10234800000000000000000000000000080000007d
:10235800080000001c0000003600000022000000f9
:10236800630000006300000063000000000000003c
:102378000000000000000000000000000000000055
:10238800000000006300000063000000630000001c
:1023980022000000360000001c00000008000000b9
:1023a800080000000000000000000000000000001d
:1023b8000000000000000000000000000000000015
:1023c8000000000000000000000000000000000005
:1023d8004040000040400000404000000040000035
:1023e8000000000000000000000000005050000045
:1023f8005050000000000000000000000000000035
:1024080000000000000000000028000030780000f4
:1024180050780000e000000000000000000000000c
:102428000000000000700000b8a000006038000044
:10243800a87000002000000000000000000000005c
:102448000066000094980000762a00002a460000e2
:102458000000000000000000000000001828000034
:10246800283e0000f49c0000887600000000000070
:102478000000000000000000404000004040000054
:102488000000000000000000000000000000000044
:1024980000200000204000004040000040400000b4
:1024a8004040000020200000000000000040000024
:1024b80040200000202000002020000020200000f4
:1024c80040400000000000000000000020f800006c
:1024d80070a00000000000000000000000000000e4
:1024e80000000000000000000000000000200000c4
:1024f800f82000002000000000000000000000009c
:1025080000000000000000000000000000000000c3
:1025180000400000404000000000000000000000f3
:10252800000000000000000000e0000000000000c3
:102538000000000000000000000000000000000093
:102548000000000000000000004000000000000043
:10255800000000000008000010100000102000001b
:1025680020200000404000004080000000000000e3
:1025780000000000006000009090000090900000b3
:102588009060000000000000000000000000000053
:1025980000200000e0200000202000002070000043
:1025a800000000000000000000000000001800000b
:1025b80068080000102000004878000000000000b3
:1025c8000000000000000000003000005010000073
:1025d8003008000008700000000000000000000043
:1025e80000000000001000003050000090f80000cb
:1025f800103800000000000000000000000000008b
:102608000038000040400000780800000870000012
:10261800000000000000000000000000001800009a
:102628002040000070500000502000000000000012
:1026380000000000000000000078000050100000ba
:1026480020200000204000000000000000000000e2
:102658000000000000f0000090900000f0900000e2
:102668009060000000000000000000000000000072
:1026780000200000505000005070000020c00000f2
:102688000000000000000000000000000000000042
:1026980000400000000000000040000000000000b2
:1026a80000000000000000000000000000400000e2
:1026b8000000000000400000404000000000000052
:1026c80000000000000000000018000060c00000ca
:1026d80038000000000000000000000000000000ba
:1026e8000000000000000000f8f0000000000000fa
:1026f80000000000000000000000000000000000d2
:1027080000c0000030380000c000000000000000d9
:102718000000000000000000609000009010000021
:102728002020000020200000000000000000000021
:102738000000000000000000000000001e00000073
:10274800610000009c800000a4800000a4800000bc
:10275800a4800000df000000610000003e000000cf
:102768000000000000000000000000000010000051
:10277800303000004878000048cc0000000000001d
:10278800000000000000000000f8000048480000b9
:102798007844000044f80000000000000000000039
:1027a80000000000007800008080000080800000a9
:1027b800c8700000000000000000000000000000d9
:1027c80000f800004c4400004444000048f80000b1
:1027d80000000000000000000000000000f80000f9
:1027e800484000007040000048f800000000000069
:1027f800000000000000000000f800004840000051
:102808007040000040e000000000000000000000f0
:102818000000000000380000c08000009c88000014
:1028280088700000000000000000000000000000a8
:1028380000ee0000444400007c44000044ee000028
:1028480000000000000000000000000000e00000a0
:10285800404000004040000040e000000000000050
:10286800000000000000000000e000004040000000
:102878004040000040400000408000000000000090
:102888000000000000ec00005060000060500000f4
:1028980048ec0000000000000000000000000000fc
:1028a80000e00000404000004040000048f8000000
:1028b8000000000000000000000000000000000010
:1028c80000000000c3000000630000006500000075
:1028d800550000005900000049000000cb0000002e
:1028e80000000000000000000000000000000000e0
:1028f8000000000000ce00004464000054540000b2
:102908004ce400000000000000000000000000008f
:1029180000380000cc84000084840000c8700000e7
:1029280000000000000000000000000000f00000af
:10293800484800007040000040e00000000000002f
:10294800000000000000000000380000cc840000f7
:1029580084840000c8700000080600000000000021
:102968000000000000f0000048480000705000001f
:1029780050ec000000000000000000000000000013
:10298800006000006040000020100000506000005f
:1029980000000000000000000000000000f8000037
:1029a800a820000020200000207000000000000087
:1029b800000000000000000000ee00004444000099
:1029c80044440000443800000000000000000000fb
:1029d8000000000000c6000044480000282800004d
:1029e80010100000000000000000000000000000bf
:1029f8000000000000000000c9800000490000003d
:102a0800550000005500000055000000220000009d
:102a1800220000000000000000000000000000008c
:102a2800000000000000000000ec0000483000003a
:102a38001028000044ee0000000000000000000024
:102a48000000000000c60000282800001010000048
:102a58001038000000000000000000000000000026
:102a680000780000901000002040000048f80000a6
:102a7800000000000000000000600000404000006e
:102a8800404000004040000040400000406000001e
:102a980000000000008000004040000040200000ce
:102aa80020200000101000001008000000000000a6
:102ab80000e000002020000020200000202000006e
:102ac8002020000020e000000000000000000000be
:102ad8002050000050500000480000000000000096
:102ae80000000000000000000000000000000000de
:102af80000000000000000000000000000f80000d6
:102b08000000000000000000c040000000000000bd
:102b180000000000000000000000000000000000ad
:102b2800000000000000000000700000907000002d
:102b380090f8000000000000000000000000000005
:102b4800c040000040700000484800004870000085
:102b5800000000000000000000000000000000006d
:102b680000700000908000009060000000000000ed
:102b780000000000000000001808000008780000ad
:102b880088880000887c0000000000000000000029
:102b980000000000000000000070000090f000003d
:102ba800906000000000000000000000000000002d
:102bb8002040000040e000004040000040e00000ed
:102bc80000000000000000000000000000000000fd
:102bd800007c00008888000070400000bc84000071
:102be8007800000000000000c040000040580000cd
:102bf8006848000048fc00000000000000000000d9
:102c0800000000000040000000c00000404000003c
:102c180040e000000000000000000000000000008c
:102c28000040000000c0000040400000404000009c
:102c3800404000008000000000000000c04000008c
:102c4800405800006060000050ec000000000000e8
:102c58000000000000000000c040000040400000ec
:102c68004040000040e000000000000000000000bc
:102c7800000000000000000000000000000000004c
:102c8800000000005b000000ed00000049000000ab
:102c980049000000ff800000000000000000000064
:102ca800000000000000000000000000000000001c
:102cb80000580000e848000048fc00000000000040
:102cc800000000000000000000000000007000008c
:102cd80088880000887000000000000000000000e4
:102ce800000000000000000000d800006848000054
:102cf8004870000040400000e000000000000000b4
:102d08000000000000780000888800008878000033
:102d1800080800001c00000000000000000000007f
:102d280000d000006040000040e00000000000000b
:102d3800000000000000000000000000004000004b
:102d4800602000006060000000000000000000003b
:102d5800000000000040000040f00000404000007b
:102d680040700000000000000000000000000000ab
:102d78000000000000d8000048480000487c00001f
:102d8800000000000000000000000000000000003b
:102d980000c8000050500000302000000000000073
:102da80000000000000000000000000000d3000048
:102db8005a5a00006c640000000000000000000087
:102dc800000000000000000000d8000050200000b3
:102dd80050d80000000000000000000000000000c3
:102de8000000000000c80000505000003020000023
:102df80020200000c00000000000000000000000cb
:102e080000700000a020000050f00000000000004a
:102e1800000000000010000020200000202000001a
:102e280040200000202000002010000000000000ca
:102e380000400000404000004040000040400000ca
:102e4800404000004040000000000000004000003a
:102e580020200000404000002040000040200000ea
:102e680020400000000000000000000000000000fa
:102e780000680000b0000000000000000000000032
:102e8800000000000000000040400000404000003a
:102e980040400000404000004000000000000000ea
:102ea8002a2e00002a000000202000002020000018
:102eb800003a0000004900006e73000065720000cf
:102ec800742000006d65000064690000612e000038
:102ed8002e2e0000002e0000002e00002e00000004
:102ee800555300004220000045720000726f000038
:102ef80072000000436100006e6e00006f740000f5
:102f0800206f0000706500006e20000066690000f8
:102f18006c650000004400006576000069630000ed
:102f2800652000006174000074610000636800009f
:102f380065640000004400006576000069630000d5
:102f4800652000006465000074610000636800008b
:102f580065640000004500006e7500006d650000a6
:102f680072610000746900006e670000004f000085
:102f780075740000206f0000662000006d65000079
:102f88006d6f000072790000005500006e7300003c
:102f980075700000706f00007274000065640000b6
:102fa8002064000065760000696300006500000089
:102fb8004875000062200000617400007461000020
:102fc8006368000065640000004900006e76000038
:102fd800616c000069640000206300006f6e0000ef
:102fe80066690000672e000000500000726f000044
:102ff8006365000073730000696e000067200000bd
:1030080065780000636500007373000000450000e8
:10301800786300006573000073690000766500003e
:10302800207000006f770000657200000043000008
:103038006c690000656e000074200000696e000075
:103048006974000020650000727200006f72000051
:10305800004d000053440000206300006f6d000025
:103068006d6100006e640000206600006169000068
:103078006c650000640000004d530000442000000f
:103088007068000061730000652000006572000030
:10309800726f0000720000004d53000044200000d1
:1030a8006f750000742000006f660000206d00003e
:1030b800656d00006f720000790000004d5300003c
:1030c80044200000434200005720000065720000c1
:1030d800726f0000720000004d5300004420000091
:1030e800435300005720000065720000726f000013
:1030f800720000004d530000442000006e6f000075
:103108002064000065760000696300006500000027
:103118004d530000442000006275000073790000e0
:10312800004d00005344000020620000616400006c
:10313800204c0000554e0000004d00005344000094
:10314800206e00006f200000696e000074650000aa
:103158007266000061630000650000004d530000c6
:1031680044200000726500007365000074200000b0
:1031780065720000726f0000720000004d5300007d
:1031880044200000626100006420000072650000b5
:10319800717500006573000074000000556e000032
:1031a80073700000656300006966000069650000cf
:1031b8006420000065720000726f00007200000059
:1031c800546f000075630000682000006120000053
:1031d8006b65000079200000746f00002063000018
:1031e8006f6e0000746900006e750000652e0000a7
:1031f8002e2e000000000000476100006d650000f1
:10320800730000005368000075200000426f000042
:10321800780000005368000061700000656c0000d1
:1032280065740000004800006f6d00006500000034
:10323800426c0000617300007465000072000000b9
:10324800536300006f720000653a000020250000fb
:1032580064000000546f00007563000068200000df
:10326800612000006b65000079200000746f000089
:10327800206300006f6e0000746900006e75000026
:10328800652e00002e2e0000005900006f7500000a
:10329800206800006176000065200000626500007b
:1032a800656e0000206800006974000021000000bd
:1032b8004d69000073730000696f00006e20000004
:1032c800616200006f72000074650000642e0000e7
:1032d80000470000616d0000652000006162000089
:1032e8006f72000074650000642e00000043000047
:1032f8006f6e00006772000061740000756c00005a
:1033080061740000696f00006e73000021200000e6
:10331800596f000075200000776f00006e210000d3
:10332800004e00006f2000006d6f00007265000005
:10333800206d00006f760000657300002e0000000d
:10334800536e0000616b00006520000043720000ae
:1033580061730000686500006421000000530000ec
:103368006875000020690000732000006675000081
:103378006c6c000020670000726f0000776e000020
:1033880021000000536e0000616b00006520000002
:10339800696e000020610000204b00006e6f000085
:1033a8007421000000000000486f00006c640000f9
:1033b800207400006f7500006368000070610000f1
:1033c800642000002564000000520000656c0000c5
:1033d8006561000073650000206100006c6c0000ee
:1033e800207400006f7500006368000070610000c1
:1033f8006473000000430000616c00006962000013
:1034080072610000746900006f6e000020630000a4
:103418006f6d0000706c000065740000652100008d
:1034280000430000616c00006962000072610000e6
:1034380074650000205400006f7500006368000088
:1034480070610000647300000053000065740000a0
:103458002044000061740000652f000054690000da
:103468006d650000004d00006d6d0000002b000030
:10347800002d0000004d00004d0000004d4d0000e3
:103488003030000000550000746900006c690000cd
:103498007469000065730000004400006174000056
:1034a800652f0000546900006d65000000430000ae
:1034b800616c0000696200007261000074650000c0
:1034c800004800006f6d000065000000426f0000ba
:1034d80061720000642000005465000073740000ed
:1034e80000440000656d00006f2000004669000080
:1034f800726d0000776100007265000020760000a0
:10350800312e000031000000496e00007365000094
:10351800727400002055000053420000206600002d
:103528006c6100007368000020640000726900008c
:10353800766500002e2e00002e00000077000000a7
:10354800434100005054000055520000452e000031
:1035580043530000560000002530000031300000c1
:103568006c6400002c25000030350000640d00005c
:103578000a000000506f0000742e00002043000075
:10358800617000007475000072650000004400005e
:10359800656d00006f6e00007374000072610000ba
:1035a800746900006f6e000073000000524700004d
:1035b800422000004c450000440000004361000028
:1035c800707400007572000065000000486f00000c
:1035d8006d6500000047000072610000706800001f
:1035e8000043000061700000205400006f75000067
:1035f80063680000005000006f740000656e0000f2
:10360800746900006f6d0000657400006572000049
:10361800204700007261000070680000005200003e
:10362800656400000047000072650000656e0000d8
:10363800004200006c750000650000004361000056
:1036480070200000546f00007563000068000000df
:103658005049000043320000344600002053000067
:10366800746100007274000065720000204b000055
:1036780069740000004600006c6100007368000077
:1036880020440000726900007665000000440000d4
:10369800656d00006f73000000550000746900003c
:1036a8006c69000074690000657300000047000041
:1036b800616d00006573000000200000200000001c
:1036c800446500006d6f00006e73000074720000a6
:1036d80061740000696f00006e7300000000000054
:1036e8000000000036620000010000000000000039
:1036f8004862000001000000000000005a6200005b
:1037080001000000000000006c62000001000000e1
:10371800000000007e6200000100000000000000c0
:10372800186200000100000000000000ee610000c7
:103738000100000000000000a04e00000100000091
:1037480000000000aa520000010000000000000074
:10375800906200000100000000000000a26200006a
:103768000100000000000000b46200000100000039
:103778000003000003060000010400000602000028
:1037880005000000030500001f1c00001f1e0000ac
:103798001f1e00001f1f00001e1f00001e1f00002c
:1037a80000010000030700000f1f00003f7f00001a
:1037b800ff00000001030000070f00001f3f00008a
:1037c8007fff00002e2e00000020000020200000b7
:1037d80020200000202000002020000020200000e1
:0437e80000000000dd
:020000040000fa
:1037ec000400fa000000eb00000f78000600370020
:1037fc009e007800805521008080400010c0b300ee
:10380c00804878001e0fe800100020009e0f10006a
:10381c00f7ff34000040eb00b2f8b700c0612100a4
:10382c002f0207000004e00034003a00a1c580001c
:10383c00c061210080087800a1c580000000eb0069
:10384c00d0009800a1c580000000eb00e0009800bb
:10385c00a2c580006000b8007001980001099800b2
:10386c00a2c580006000b8001009980021099800da
:10387c00a1c58000c0c5b300c0589800100020003e
:10388c00000f780007003700a1c580001e007800eb
:10389c0000804000fc00400000c2b300804878006b
:1038ac001e0fe800a00020009e0f1000f6ff340051
:1038bc00a1c580000000eb00c0109800a1c58000dd
:1038cc0000012000e0109800a2c5800030ab800001
:1038dc0041ab80007011980001199800a2c58000be
:1038ec0030ab800041ab8000101998002119980072
:1038fc001000200010079800020037000000eb00b9
:10390c00100798001e0090000080fa0000000600ce
:10391c001400fa00881f780060079800710798005f
:10392c0002579800135798006e00900040109000ba
:10393c0050079800a0002000100798006e0090001f
:10394c0080189000701090006e0190001019980073
:10395c00211998007e009000601090000080ea0011
:10396c00300798005e0090000000e00009003a006b
:10397c00ea00470012c0b3006e0090000e0807006a
:10398c000000e0000f003a00c00120001007980072
:10399c000c0037005e0090006f0060000000e0003b
:1039ac0008003200ea00470012c0b3006e0090001d
:1039bc00010807000000e00002003a00c0012000ee
:1039cc00100798001e009000fc0f5000c100320040
:1039dc001e0090000000e000be003200ea0047002c
:1039ec006e009000410c0700504798005e4090001c
:1039fc00e24f5000b70032005e4090000004e0003f
:103a0c00ab003a006e009000e01090004107980067
:103a1c00ce009000f003200000806000400798006a
:103a2c001e5090000080fb00100f98001e089000a4
:103a3c000000e000040032009e089000e18f50006e
:103a4c00330032009f0037004e009000e80f50000a
:103a5c009c0032004e0090000000d1000000a2003b
:103a6c00610060000004e000960032000000eb00f2
:103a7c0010079800d0c6b300104798000040eb0028
:103a8c00404798001e0037004e4090000080fb001d
:103a9c00ee0090007c0040000100400010407800d7
:103aac00104798004e4090000080fb00fe009000f4
:103abc007c0040000100400010407800004f78006e
:103acc001e4090000080fb00aa03020000000000d2
:103adc00000478001e80fb00aa0302000000000016
:103aec00800f540003003200a00020001007980043
:103afc00740037004e4090000040e80040479800aa
:103b0c004e409000ea4f5000dfff36006d0037004a
:103b1c004e009000be009000010060000000e0002c
:103b2c0068003a004e009000ef0f50006500320024
:103b3c000000eb0010079800d0c6b30010479800a7
:103b4c007e009000c0589000a0c2b30080cf5000ff
:103b5c00270032000040eb0040479800210037005e
:103b6c004e4090000080fb00ee0090007c00400076
:103b7c000100400010407800104798004e40900023
:103b8c000080fb00fe0090007c0040000100400023
:103b9c0010407800004f7800a0c2b3009e4f100078
:103bac00130032001e4090000080fb00aa030200ac
:103bbc0000000000000478001e80fb00aa03020035
:103bcc0000000000800f540003003200a000200011
:103bdc0010079800060037004e4090000040e800a7
:103bec00404798004e409000e74f5000dcff3600f5
:103bfc007e009000c0609000a0c2b30080cf500047
:103c0c00300032001e0090000000e0002d003a0051
:103c1c0080c0b30040479800210037004e40900010
:103c2c000080fb00ee0090007c0040000100400092
:103c3c0010407800104798004e4090000080fb0028
:103c4c00fe0090007c004000010040001040780015
:103c5c00004f7800a0c2b3009e4f10001900320034
:103c6c001e4090000080fb00aa0302000000000030
:103c7c00000478001e80fb00aa0302000000000074
:103c8c00800f540003003200a000200010079800a1
:103c9c000c0037004e4090000040e8004047980070
:103cac004e409000ea4f5000dcff36000500370014
:103cbc000e5090000004e00002003a000000eb00ff
:103ccc00100798005e0090000000e8005007980074
:103cdc003fff37001e0090004f0478000080fa0070
:103cec00000006001200fa005007980061079800c7
:103cfc00624f98000000eb00000f78005e0090000f
:103d0c0090007800410798004e00900050589000a9
:103d1c000004e00003003a0060002000000f78006f
:103d2c007e0037005e0090008018900070109000ac
:103d3c005e01900010199800211998006e009000f7
:103d4c00100078000000e00009003a0012c0b30037
:103d5c00ee0090005e009000170707000000e000e6
:103d6c0010003a00c0012000000f78000d00370051
:103d7c006e009000100078006f0060000000e00002
:103d8c000800320012c0b300ee0090005e009000fc
:103d9c00090707000000e00002003a00c001200003
:103dac00000f7800ee0090005e0090004f0b0700b3
:103dbc00604798006e4090000004e0000300320061
:103dcc00a0002000000f7800540037005e01900026
:103ddc006000b80070019800010998005e00900026
:103dec00a0009000100090005e019000300198003f
:103dfc0041019800de0090000000eb00d00098001c
:103e0c00de0090000000eb00e00098006e40900097
:103e1c00e14f500003003a00a0002000000f780092
:103e2c00290037005e00900030019000c001900026
:103e3c004e009000241107001007980021079800ed
:103e4c00b0d8bf000004e00006003200ae1207003c
:103e5c000004e000030032000080eb00000f98002b
:103e6c0030003700de00900051c5880062c580002c
:103e7c0073c580001e009000ae009000800f5100b2
:103e8c00818f5900100032000040eb00b2f8b700ef
:103e9c004e009000100178001e009000ae009000c3
:103eac00f8580200010000000004e00002003a0093
:103ebc0070002000000f78001e009000ae009000f3
:103ecc0060c5880071c58800de0090003108900044
:103edc000010a100b0089800ee48900070c7b30025
:103eec0080cf500004003200ee48900010c6b300a2
:103efc0080cf500005003a00de00900031089000a1
:103f0c000000a000b008980004003700de0090000c
:103f1c00310890000000a100b00898009e007800c5
:103f2c00010f98000e0890000080fa0000000600b7
:103f3c001c00fa00200f9800320f9800430f9800d5
:103f4c000040eb00204798002e089000100f7800de
:103f5c001e007800405890000080fb00500f980025
:103f6c005e089000e10f5000160032005e099000d0
:103f7c00e30f5100010032000900370080ff2f00d1
:103f8c00f1ff20002007980031079800f0ff2f0068
:103f9c00f1ff2000400798005107980011003700ee
:103fac0080ff2f00010020002007980031079800a7
:103fbc00f0ff2f00010020004007980051079800e7
:103fcc000800370080ff2000010020002007980027
:103fdc0031079800f0ff2f000100200040079800e7
:103fec00510798002e08900030019000c0019000fd
:103ffc0062079800730798006e019000fe01900014
:10400c001e00780007160700000f9800110f98008b
:10401c000e0990009e0990004e009000de0090006a
:10402c00800f5100818f590003003a0070c0b3001b
:10403c0020479800130037001e00780020099000dc
:10404c00b00990000e0890009e089000800f51005f
:10405c00818f590002003e0090c0b30020479800a9
:10406c000e0990009e0990002e009000be0090005a
:10407c00800f5100818f590002003900c0c3b3007a
:10408c00204798002e0890000e0990009e09900081
:10409c0032009800430098003e089000ce08900033
:1040ac0061005000e0805800300f9800410f9800dc
:1040bc003e089000ce089000e00f5000e08f5800b2
:1040cc00030032002e4090000004e000c5ff3200d7
:1040dc002e4090000080fb000080fa0000000600db
:1040ec000400fa00100798000040eb00004f780025
:1040fc009e0090000040eb00d05898009e0090006d
:10410c00c00e2100800878006857020001000000f2
:10411c00e14f50000300320050c0b300004f780054
:10412c000d0037001e0090000e000700004f7800b5
:10413c001e04e00008003a001e009000da000700a0
:10414c00004f78001e04e00003003a009e0090002f
:10415c0010c0b300d05898001e80fb000080fa00fd
:10416c00000006000e00fa00300798000040eb003b
:10417c00304798003e009000100178006000b800b5
:10418c00f858020001000000e14f5000030032001b
:10419c0070c0b30030479800bd0037003e0090005f
:1041ac0010007800000f78001e007800e0f89300f3
:1041bc0050c5b30080cf500069003a001e00780053
:1041cc00f0f89300a0cab30080cf500064003a000e
:1041dc003e00900010007800610320006525070068
:1041ec008040780060c4b30080cf50002a003a00b1
:1041fc003e00900010007800710320005d25070040
:10420c008040780010c4b30080cf500022003a00e8
:10421c003e00900010007800810320005525070017
:10422c008040780040c5b30080cf50001a003a009f
:10423c003e00900010007800910320004d250700ef
:10424c008040780010c3b30080cf500012003a00b9
:10425c003e00900010007800610220004525070008
:10426c008040780090c2b30080cf50000a003a0022
:10427c003e0190006000b8001001980021019800e8
:10428c00be00900020c0b300c05898000000eb00a6
:10429c0050079800810037003e0090001000780015
:1042ac0021052000332507008040780060c4b3004e
:1042bc0080cf50002a003a003e0090001000780099
:1042cc00310520002b2507008040780010c4b30076
:1042dc0080cf500022003a003e0090001000780081
:1042ec0041052000232507008040780040c5b3001d
:1042fc0080cf50001a003a003e0090001000780069
:10430c00510520001b2507008040780030c3b30006
:10431c0080cf500012003a003e0090001000780050
:10432c0021042000132507008040780090c2b300c0
:10433c0080cf50000a003a003e0190006000b800a7
:10434c001001980021019800be00900030c0b3000d
:10435c00c05898008000eb00510798004f003700c0
:10436c003e00900010007800200798002e0090006e
:10437c00e0f8930050c5b30080cf500005003a0020
:10438c002e009000f0f89300a0cab30080cf50002c
:10439c000300320040c0b300304798003c003700a7
:1043ac00ae00900061c093000082fb0071c09300ce
:1043bc000080fb004800dd00040070000001780064
:1043cc0001c893000082fb0011c893000080fb0021
:1043dc004800dd0004007000800178003e00900071
:1043ec0012009800230098002e009000a0c09300ab
:1043fc00214798002e4090000080fb004007980059
:10440c004e009000ee0f50001f003e0010002000e8
:10441c00ce0090000100dd0060079800000524002c
:10442c00ee009000008060000000e0000e003a00fa
:10443c0000802100ee009000008060000000e00091
:10444c000d003a00ee009000628060000000e00079
:10445c0001003a000c003700be00900010c0b30001
:10446c00c05898000a003700be00900020c0b3006e
:10447c00c058980006003700be00900030c0b30052
:10448c00c05898000200370040c0b3003047980075
:10449c003e4090000080fb00500798005e009000aa
:1044ac000080fa00000006001800fa00200f9800a7
:1044bc000040eb00604798002e0890001001780037
:1044cc002e089000a000900010009000f8580200f8
:1044dc0001000000e14f50000300320070c0b30037
:1044ec0060479800ee0037002e089000100078000e
:1044fc00200798002e009000e0f8930050c5b30000
:10450c0080cf500005003a002e009000f0f8930088
:10451c00a0cab30080cf50000300320030c0b300fb
:10452c0060479800de0037002e08900010007800dd
:10453c00e100200098240700000f78002e0890005e
:10454c0010007800d10020008a24070080407800f9
:10455c002e089000315898002e0890001001900001
:10456c00a00190001e007800010020000200400015
:10457c00838048002e09900030019800410198007a
:10458c002e0890001000780001012000792407000b
:10459c00804078002e089000215898002e0890003a
:1045ac0010007800610120007b2407008000780057
:1045bc002e089000410898002e08900040089000aa
:1045cc000000e00007003a002e0890001000780070
:1045dc00410220008a240700800078002e089000f9
:1045ec00410898002e08900030019000c001900006
:1045fc002e089000205890008080fb002e08900020
:10460c00400890000088b900010020000200400022
:10461c00838048002e099000500198006101980099
:10462c002e08900010007800110120005a24070079
:10463c00800078002e089000110898002e08900039
:10464c0010007800310120005324070001002000e5
:10465c0060079800710798006e009000fe009000b3
:10466c00e00f5000e08f580006003a002e08900032
:10467c0010007800010220006124070060079800f8
:10468c00710798002e08900010007800b1002000ef
:10469c0041240700100798001e0090000000e00065
:1046ac00040032001e009000610060000004e00075
:1046bc000300320030002000300f98007b003700e0
:1046cc002e08900010089000c500dd001e00900020
:1046dc00008040000000e9001e019000110009005c
:1046ec000280d80001002000000f9800110f9800e4
:1046fc002e089000205890008080fb002e0890001f
:10470c00400890000088b9001e0040006101b8000c
:10471c000e0890009e089000020140008381480022
:10472c006e009000fe009000020050008380580044
:10473c0040079800510798002e08900030589000c0
:10474c000081fb00030020004e009000de00900072
:10475c000a0d0200000000002e09900020099800ac
:10476c00310998002e08900020099000b0099000a3
:10477c0040ff200001002000800f5100818f590064
:10478c0004003e00ae08900010c0b300c058980062
:10479c000f0037002e08900020099000b0099000ff
:1047ac0040ff2f0001002000800f5100818f590025
:1047bc0004003e00ae08900020c0b300c058980022
:1047cc0003003700ae08900030c0b300c05898000a
:1047dc002e08900040589000e34f50001b003a0008
:1047ec002e08900010007800c1022000042407005d
:1047fc0030ab880041ab88002e0890001000780088
:10480c0001032000fe23070070ab88002e089000e7
:10481c001000780021032000df23070060ab880024
:10482c002e08900050019000e00190000e089000be
:10483c009e08900002004000838048002e099000e2
:10484c0070019800010998000f0037006000b80053
:10485c0030ab880041ab88002e08900050019000ce
:10486c00e00190002e089000100890004400de003b
:10487c000100200002004000838048002e099000b7
:10488c0070019800010998009e0090000020200003
:10489c00808f50000200320030c0b3006047980097
:1048ac006e4090000080fb00300f98003e08900096
:1048bc000080fa00000006005400fa00207f9800e7
:1048cc00621f9800731f9800012798007c00470016
:1048dc0050079800de009000c00e21008008780080
:1048ec006857020001000000e14f50000300320045
:1048fc000080eb003027980052033700c20e2100d5
:10490c006000b800f8580200010000000004e0004c
:10491c0003003a008080eb003127980049033700f0
:10492c005e00900010007800600798006e00900008
:10493c00e0f8930050c5b30080cf500059003a0006
:10494c006e009000f0f89300a0cab30080cf500026
:10495c0054003a005e0090001000780061032000c3
:10496c00842307008040780060c4b30080cf5000df
:10497c0038003a005e0090001000780071032000af
:10498c007c2307008040780010c4b30080cf500017
:10499c0030003a005e009000100078008103200087
:1049ac00742307008040780040c5b30080cf5000ce
:1049bc0028003a005e00900010007800910320005f
:1049cc006c2307008040780010c3b30080cf5000e8
:1049dc0020003a005e009000100078006102200078
:1049ec00642307008040780090c2b30080cf500051
:1049fc0018003a002e7890000000fb002027980049
:104a0c002e2190000200e00007003200ae21900041
:104a1c00e18f510001003200220037000082eb00d0
:104a2c0034279800070337005e0090006011b8002f
:104a3c0012009800230098005e0090009afe070078
:104a4c000004e000170032000080eb0030279800d3
:104a5c00fc023700c00e2100500f9800de089000b9
:104a6c0061c093000082fb0071c093000080fb00ca
:104a7c004800dd00040070000001780001c89300bc
:104a8c000082fb0011c893000080fb004800dd0091
:104a9c0004007000800178005e0090001200980005
:104aac00230098002e7890000000fb00102798003f
:104abc009e2090000100e000fb0132001e219000be
:104acc00e10f510001003200fe013700de089000ba
:104adc0021c893000082fb0031c893000080fb00ca
:104aec004800dd00040070000001780041c893000c
:104afc000082fb0051c893000080fb004800dd00e1
:104b0c000400700080017800320f9800430f980069
:104b1c003e099000ce099000800321000100200086
:104b2c00800f5100818f590026003e00de0090005e
:104b3c0010c0b300c0589800de08900010c0b3003d
:104b4c00a0c09b0013c0b300c20e21006000b800cf
:104b5c00ba590200010000000004e00003003a0012
:104b6c008081eb0033279800b60237003e09900095
:104b7c00ce0990007002210001002000800f51002e
:104b8c00818f590004003600de00900020c0b30075
:104b9c00b058980003003700de00900010c0b3003e
:104bac00b0589800c00e2100022020008000eb00bd
:104bbc00b80302000000000020c3b30026f1b700c8
:104bcc004a0037003e099000ce099000f0d52f0026
:104bdc00f1032000800f5100818f590040003e00ee
:104bec00de00900020c0b300c0589800de08900092
:104bfc0060c0b300a0c09b0013c0b300c20e210064
:104c0c006000b800ba590200010000000004e00086
:104c1c0003003a000082eb00342798008902370029
:104c2c003e099000ce09900080de2f00f1ff2f008e
:104c3c000200400083804800100f9800210f98005c
:104c4c00de00900010c0b300b05898000d00370083
:104c5c005e009000305890000080fb000000400087
:104c6c00804078005e009000315898001e0890003b
:104c7c00ae0890008100d1000080d300100f980086
:104c8c00210f98001e099000ae099000d0fe2f0055
:104c9c0001002000800f5100818f5900ecff3e0075
:104cac005e009000b058900000c8b30080cf500058
:104cbc00030036000080eb003027980061023700bb
:104ccc00c00e2100022020008000eb00b80302007f
:104cdc000000000060c3b30026f1b70003003700ea
:104cec008080eb0031279800560237005e00900060
:104cfc00305890000080fb00000040006101b900ba
:104d0c003e089000ce0890000201400083814800cc
:104d1c00f0fd2f00f1ff2f000200400083804800bf
:104d2c0020079800310798005e00900040589000d2
:104d3c00e14f500009003a005e009000305890009e
:104d4c008080fb00501520000088b9000080e8002e
:104d5c00cf80de00008fbe00070037005e009000a1
:104d6c00305890000080fb004800dd000080e80017
:104d7c00cf80de00008fbe002e009000be009000a1
:104d8c003e014000ae8148000200be0061005000b0
:104d9c00e08058001e01be000a0d02000000000059
:104dac002007980031079800b0ceb300ecf0b700a4
:104dbc00c0c3b300edf0b70000c9b300eef0b7000c
:104dcc00d0c4b300eff0b70030c4b300f0f0b700bc
:104ddc0080c4b300f1f0b70000c5b300f2f0b70027
:104dec0000c2b300f3f0b70060c4b300f4f0b70036
:104dfc0010c4b300f5f0b70040c5b300f6f0b7002f
:104e0c000040eb00f7f0b70020c0b300f8f0b7009b
:104e1c005e00900030589000f9f0b70080c0b300ed
:104e2c00faf0b7000040eb00fbf0b7005e0090001a
:104e3c00a00090001000900068004000e080480046
:104e4c005e019000300198004101980020c0b30031
:104e5c00fcf0b700de00900020c0b300a058980012
:104e6c000040eb00fdf0b70020c0b300fef0b7002f
:104e7c00de00900000202000900898000040eb001d
:104e8c00fff0b7000040eb0000f1b70080cfb3009b
:104e9c0001f1b7002e00900002f1b7002e00900037
:104eac00be009000c809dd004800de0000807100e3
:104ebc00c808de0003f1b700ae0090005e00900061
:104ecc0041089800f0c3b30004f1b7000040eb00b8
:104edc0005f1b70000c0eb0006f1b7000040eb0095
:104eec0007f1b7005e009000a00090001000900049
:104efc0008f1b7005e009000a00090001000900038
:104f0c00480add004800de0000007200c808de0020
:104f1c0009f1b7005e009000a00090001000900016
:104f2c004008de00010020000af1b7005e0090008e
:104f3c00a0009000100090004808de000100200046
:104f4c000bf1b7003e0890000cf1b7003e08900042
:104f5c00ce0890004809dd004800de00000071001a
:104f6c00c808de000df1b7003e089000ce08900096
:104f7c004008de00010020000ef1b7003e08900052
:104f8c00ce0890004808de00010020000ff1b700a9
:104f9c000040eb0010f1b7000040eb0011f1b7003e
:104fac0090c2b30012f1b7006e18900080407800e8
:104fbc0000c0eb0000c0600013f1b7006e18900049
:104fcc00fe18900040279800512798004e20900022
:104fdc00de209000e00f5000e08f580006003d00ee
:104fec004e219000de219000f20fb0000380b00043
:104ffc0042279800532798004e219000de21900004
:10500c00481add004810de0000007200c898de006f
:10501c008040780000c0eb0000c0600014f1b700c5
:10502c006e189000fe189000602798007127980069
:10503c006e209000fe209000e00f5000e08f580092
:10504c0008003d00f0ff2f00010020006e219000b1
:10505c00fe219000020140008381480062279800e5
:10506c00732798006e219000fe2190004098de007e
:10507c00cf80de008040780000c0eb0000c06000f4
:10508c0015f1b7006e189000fe189000002f9800d4
:10509c00112f98000e2890009e289000e00f5000d1
:1050ac00e08f580008003d00f0ff2f00f10f2000aa
:1050bc000e2990009e299000020140008381480037
:1050cc00022f9800132f98000e2990009e29900013
:1050dc004898de00cf80de008040780000c0eb00f6
:1050ec0000c0600016f1b7000e2090000000e00038
:1050fc002f0032000040eb0074f5b70011003700b0
:10510c0074d5bf000080fb00b202200000014100fa
:10511c0074d5bf000080fb00800078000e2090004a
:10512c00008040001040780080407800c00e2100c4
:10513c00000041000148780074d5bf000040e80031
:10514c0074f5b70074d5bf000080fb0080007800b8
:10515c000e20900000804000104078000004e00019
:10516c000f00320074d5bf00ea4f5000e4ff360048
:10517c000b00370042572100124178000280fb00df
:10518c00b102200080804000c00e210080804000d1
:10519c0000c2b300804878000240e80074f5b70004
:1051ac0074d5bf00ea4f5000f2ff360011003700f3
:1051bc000040eb0074f5b7000b00370074d5bf004e
:1051cc000080fb00b102200080804000c00e210056
:1051dc00808040000040eb008048780074d5bf0010
:1051ec000040e80074f5b70074d5bf00ea4f5000da
:1051fc00f2ff360060c4b30022f1b70010c4b30054
:10520c0023f1b70040c5b30024f1b70010c3b300bd
:10521c0025f1b70000c2b30027f1b70000c2b300fc
:10522c0028f1b70000c2b30029f1b70050c5b30094
:10523c00eaf2b700a0cab300ebf2b7005e00900030
:10524c0030019000c00190005e009000205890004a
:10525c008080fb005e009000400890000088b90040
:10526c000100200002004000838048005e01900095
:10527c0050019800610198005e009000a000900021
:10528c00100090008041eb00c20e2100ba590200c0
:10529c00010000000004e0000d003a008081eb00ea
:1052ac0033279800e70037005e0090007efc070073
:1052bc000004e000060032000082eb003427980066
:1052cc00e00037000080eb0030279800dd0037004d
:1052dc00c00e2100022020008000eb00b803020069
:1052ec000000000080cfb300ecf0b70000c0eb0072
:1052fc00edf0b70000c0eb00eef0b7005e009000e0
:10530c0040589000e24f500002003a0000c0eb0001
:10531c00eff0b7005e009000205890000080fb007a
:10532c000000e90040079800160037005e0090006e
:10533c0030019000c00190005e009000c008900009
:10534c004e0090000088b9000100200002004000cf
:10535c00838048008041eb00c20e2100ba59020044
:10536c00010000000004e00003003a008080eb0024
:10537c0031279800b30037004e0090000000e90080
:10538c00400798004e009000e10f4000e7ff3a0004
:10539c006000b80060878800718788005e0090000c
:1053ac00c0009000300090000040e80074f5b70099
:1053bc00200037005e009000205890000080fb0019
:1053cc000000e900400798001400370074d5bf00b6
:1053dc000081fb005e009000c00890004e00900021
:1053ec000088b90000004100010020008041eb0062
:1053fc00c20e2100ba590200010000000004e000b6
:10540c0003003a000081eb00322798008d00370032
:10541c004e0090000000e900400798004e009000fc
:10542c00e10f4000e9ff3a0074d5bf000040e800ee
:10543c0074f5b70074d5bf000082fb000500200096
:10544c005e00900030019000c00190005e00900062
:10545c0040089000010020000200400083804800ba
:10546c00800f5200818f5a00d2ff39005e009000ed
:10547c00100890004500dd00f01fb0004900de0070
:10548c000100200070079800010f980010c0b300b5
:10549c0074f5b700140037005e00900050019000c6
:1054ac00e001900074d5bf000080fb0001002000db
:1054bc0002004000838048008041eb00c20e2100b6
:1054cc00ba590200010000000004e00003003a0099
:1054dc008081eb00332798005a00370074d5bf0049
:1054ec000040e80074f5b70074d5bf000081fb00e4
:1054fc00030020007e0090008e089000800f510069
:10550c00818f5900e4ff39000e2090000000e0006c
:10551c003e0032000040eb0074f5b7000f0037007e
:10552c0074d5bf000081fb0074d5bf000080fb0068
:10553c00800078000e209000008040001040780021
:10554c0080407800c00e2100000041000148780026
:10555c0074d5bf000040e80074f5b70074d5bf00e7
:10556c000080fb00800078000e209000008040003e
:10557c00104078000004e0000d00320074d5bf002c
:10558c00ea4f5000e6ff3600090037004257210071
:10559c00124178008280fb00c00e21008080400008
:1055ac0000c2b300804878000240e80074f5b700f0
:1055bc0074d5bf00ea4f5000f4ff360080c0b30032
:1055cc00f7f0b70010c1b300fdf0b70010c1b30085
:1055dc00fff0b70010c1b30003f1b7005e009000fc
:1055ec00e0009000500090008041eb00c20e2100c2
:1055fc00ba590200010000000004e0000f003a005c
:10560c000082eb00342798000e0037005e009000fb
:10561c00e0009000500090008041eb00c20e210091
:10562c00ba590200010000000004e00003003a0037
:10563c000080eb0030279800020037008000eb0060
:10564c00312798003e2090000080fa0000000600f0
:10565c001200fa0060079800710798006e00900025
:10566c0090007800510798006e009000101990007f
:10567c00a0199000028fbe007e00900010007800f0
:10568c004400de00004f98005e00900040589000ef
:10569c000080fb00000f98008e099000e18f5100f4
:1056ac001f0035000e089000e20f50000e00340071
:1056bc008e089000e38f5000010032001800370074
:1056cc005e009000b05890000e4890000080fb00e7
:1056dc000181fb00110009000280d8008000fd0050
:1056ec00004f98000e00370030ab800041ab8000bb
:1056fc00be0f1000ae8f1800090032005e00900043
:10570c00b05890000e4890000080fb000181fb0017
:10571c00110009000280d8008000fd00004f9800a5
:10572c001e01be005e009000e70a070020079800eb
:10573c00310798005e009000100278000e4890002f
:10574c000081fb00030020002e009000be009000a2
:10575c0002004000838048008041eb000401780087
:10576c00ba590200010000000004e00003003a00f6
:10577c000040eb00104f98000200370010c0b3003f
:10578c00104f98001e4890000080fb000080fa002b
:10579c00000006001800fa0070079800010f98002e
:1057ac00120f98000000eb00000f78001e0890000c
:1057bc00405890000080fb00300f98003e0890008d
:1057cc00e20f500010003200be089000e38f500032
:1057dc00040032003e089000e10f5000130032002c
:1057ec001a003700f0ff2f00f1ff2000100798007f
:1057fc002107980080ff2f00f1ff20003007980050
:10580c004107980011003700f0ff2f000100200025
:10581c00100798002107980080ff2f00010020003e
:10582c00300798004107980008003700f0ff2f0060
:10583c0001002000100798002107980080ff20002d
:10584c000100200030079800410798007e0090006e
:10585c008e089000e00f5000e08f580007003200d7
:10586c007e0190008e0990001000200001002000a5
:10587c00800f5100818f59003d003a00200020001c
:10588c00000f78003c0037007e0190008e099000dc
:10589c001e089000e30f070050079800610798005e
:1058ac005e019000ee0190001e009000ae00900092
:1058bc00800f5100818f590003003a001000200026
:1058cc00000f78002a0037005e009000ee00900078
:1058dc00e00f5000e08f5800070032005e0190008e
:1058ec00ee0190001000200001002000800f5100fc
:1058fc00818f590003003a0020002000000f78002f
:10590c001b0037005e019000ee0190003e009000fd
:10591c00ce009000800f5100818f59000200390099
:10592c0020002000000f78008040eb006022b800bf
:10593c007e0190008e0990001e0890008f110700c8
:10594c000001be001e009000ae009000800f5100c0
:10595c00818f590002003a0010002000000f7800df
:10596c005e009000ee00900070079800010f980008
:10597c001e00e000c4ff320011c0b3006022b8006a
:10598c006011b8001e0890007c1107002100200057
:10599c009e8f100003003a0010002000200f98008a
:1059ac00020037008000eb00210f98002e089000b9
:1059bc000080fa00000006002000fa00300f98006a
:1059cc00410f9800225f98003e08900090007800ec
:1059dc00110f98003e0890007011900080199000f3
:1059ec0052079800630798003e0890001019900029
:1059fc00a019900012079800230798004e089000f9
:105a0c00100078004400de00104798001e0890003b
:105a1c00405890000080fb00700f9800fe09900029
:105a2c00e18f5100270035007e089000e20f5000f6
:105a3c0012003400fe089000e38f50000100320089
:105a4c00200037001e089000b05890001e409000b7
:105a5c000080fb000181fb00110009000280d800ce
:105a6c008000fd001047980080ff2f00f1ff200000
:105a7c003007980041079800120037005e00900034
:105a8c00ee009000e00f5000e08f5800090032004b
